:4000000000100020110000000D0200000D02000010B500F0C1FC00F001F9C04610B50B4C12232360182000F037FC80225200084B1A60084A084B1A600022084B1A6040328F
:40004000074B1A601123236010BDC046300010400003014040FF008000000140280003400401014010B572B60F4A104B1A60EE2212020F4B1A6022220E4B1A600E4A0F4BD9
:400080001A6008220E4B1A603D320E4B1A600E4A0E4B1A6005220E4B1A60D82212010D4B1A60FFF7BBFF10BDFF0F000000020240000302400000044010001B0008000440B4
:4000C0000C000440000204408E0D180008020440180204400803044000000000000000000000000000000000000000000000000000000000000000000000000000000000BC
:4001000010B5064C2378002B07D1054B002B02D0044800E000BF0123237010BD0801002000000000B00C0000084B10B5002B03D00749084800E000BF07480368002B00D15E
:4001400010BD064B002BFBD09847F9E7000000000C010020B00C0000800000200000000010B50122024B1A7000F0B0FA10BDC0462401002010B582B005221D49684600F090
:400180008DFD1C4800F0CEFA62B600F0B3F90C2000F026FC184800F0AFF900F0E1F80521684600F0A9F800F0BFF8144800F0A4F9134B1B78002BFBD000F0F2F800F0E8F860
:4001C00000F0FEFBC043C0B200F0EEFB0D4C0121200000F0AFF80C4800F08EF9207800F0FFFB00F097F90022054B1A70DDE7C046B40C000061010000BC0C0000D00C00003D
:400200002401002030010020E80C000010B500F019FD03680C2B00D1FEE7FEE770B50F4E0F4D13E029686B68AC68002202E001C901C30432A242FAD1E868002202E00021F7
:4002400002C304328242FAD11035013E002EE9D100F0FEFCFFF78EFFFEE7C04601000000340D000010B500230AE0032B03D89A000849505800E008489900084A8850013359
:400280001F2BF2D9FFF7EEFE80229205044B1A6010BDC046000000000D0200000000002008ED00E010B50121012000F08DF80121022000F089F80321032000F085F8032164
:4002C000042000F081F84B21052000F07DF82621062000F079F800211C2000F075F800211D2000F071F80121112000F06DF83B21002000F069F810BD10B5002807D0052908
:4003000000D905210A0001000A2000F077F810BD10B5002803D0012000F01EFA02E0002000F01AFA10BDC04610B50120FFF7F0FF10BDC04670B504000D00002809D00020A6
:4003400000F00AFA2900200000F096F8012000F003FA70BD10B57021072000F035F810BD10B5642000F01AFA002000F0F5F9012000F0E6F900F0EAF800F072F800F076F85B
:40038000FFF7E8FFFFF78EFF962000F0F1FA10BD10B501218140C9B2072000F015F810BD10B500F091F87023184020280AD0402802D0102804D101E0062004E0042002E0E8
:4003C000702000E0052010BD70B505000C0000F0DBF800F003F9002000F0B2F920202843C0B200F0E1F8200000F0DEF800F0C4F80228FBD1013800F0A3F970BD70B5060070
:400400000D00140000F0C0F800F0E8F8002000F097F920203043C0B200F0C6F82100280000F0D0F800F0A8F8631C9842FAD1012000F086F970BDC04610B5040000F0A4F8E3
:4004400000F0CCF8002000F07BF9200000F0ACF800F092F80128FBD100F072F910BDC04610B5E220FFF7E8FF10BDC04610B5E120FFF7E2FF10BDC046F8B507000E0000F05A
:4004800083F800F0ABF8002000F05AF9612000F08BF800F071F80028FBD000F067F800240BE0FF2000F080F800F066F80028FBD03D1900F05BF828700134B442F1D3012024
:4004C00000F03EF9F8BDC04610B500F05DF800F085F8002000F034F9FF2000F065F800F04BF80128FBD100F02BF900F03FF8C0B210BDC0467047C04670B5050000780124CE
:4005000004E000F06DFA285D0134E4B20028F8D170BDC04610B50D2000F062FA0A2000F05FFA10BD10B500F069F810BD10B500F087F810BD10B5044A1368802109060B431E
:400540001360FFF7EFFF10BD0000094010B5064B1B78002B04D1FFF7E9FF0122024B1A70FFF7E8FF10BDC0462C010020014B18687047C04640030940024B1B681F20184014
:400580007047C04608030940054B1A68802149020A431A601968034A0A401A607047C04604030940FFFFFEFF044B1B681F221340082BF9D0024B18607047C04608020940D4
:4005C0004002094070B506000D00002403E0305DFFF7EAFF0134AC42F9D370BD054B1A68802149020A431A601968034A0A401A607047C04604020940FFFFFEFF054A1368C1
:40060000F02109010B431360034B1A88034B1A607047C046000202402E010020880F094005490A68054B1A408006C0231B051840104308607047C04620000940FFFFFFF3DA
:4006400010B5124A124B1A60124A134B1A60134B134A13600721134A1160134A13600023124A1360124A1360124A1360124A1360124A1360124A1360124A13601268124BB7
:400680001A800020FFF7CCFF10BDC0460F0000010000094001000080200009400701008000030940040309400002094004020940880E0940C80E0940480F0940080F0940ED
:4006C000C80F0940880F09402E010020034A10680223184010604008C0B2704710000440014B18647047C0460000002010B5040000F0EBF9044A1368C0218B43A4011C4376
:40070000146000F0E6F910BD00E400E00122014B1A60704700E100E00122014B1A60704780E100E010B50400FFF7F6FF2000FFF7D7FF0320FFF7DAFFFFF7E8FF10BDC04661
:4007400004490A68D2B208239A43C00018401043086070470002044004490A68D2B240239A438001184010430860704700000440024A1168024B0B4013607047000007407E
:40078000FFFFFFBF034B18688023DB05184000D0012070470000074001BE704710B5040006E0084B586800F087F9074B9C46644480231B029C42F4D8024B9868604300F017
:4007C0007BF910BD8C0000200080FFFF30B583B000F0D8F8002849D000F077F90400244B196889001C2319401831224B1B689B0803221340D940204B1A68204B1340204A7E
:400800004A438020C00184466244D20B013A5205520D1343A02252031A431000192902D8184A13430CE0184BCB181B781A39174A525C9A18FF2A00D9FF22920503001343F2
:400840000D4A1360124D2B680193302000F044F9104A13688021C9050B4313601420FFF79DFF019B2B60200000F033F903B030BD080F0340280003400800074000F800C011
:4008800040420F000000D43FCDF1FF0FF40C00003000104000000740F0B583B0040018280BD01C2809D0202807D0242805D0282803D02C2801D0302849D100F006F9019073
:4008C000FFF760FF002803D0FFF752FF012600E00026214A136807218B4313601F4BE3181B78DBB21E4A13601E4A13688B4313601D4803687F22934319001C4BE3181B780C
:4009000013400B430360322000F0D6F8182C16D9114F3B680725AB431A0023001C3B9B082B4013433B60322000F0C6F83A68AA432300183B9B082C001C4014433C60012E6E
:4009400001D1FFF743FF019800F0C3F802E00020FFF722FF03B0F0BD080F0340CDF1FF0F0C0F0340100F0340180F0340B4F1FF0F10B5034B1B7B584300F09EF810BDC04610
:400980008C000020034B1B68002B01DA012000E00020704700000740014A024B1A6070476588EDAC3800034004490A68D2B240239A438001184010430860704700020440B7
:4009C000024B186880090123184070470402044000000000000000000000000000000000FEB5494652465B460EB407462E4909688A462E4A12682E48022100F097F80300D5
:400A00002A480068C0182A4900F090F806001F3EB346234A126801219140C9430C000125002600F052F8814651460B6823400B605846043000F040F83800F040284090400C
:400A40000B68234003430B60584600F035F80136072EF1D900200130012090400B68234003430B605846063000F026F8484600F030F8C046C046C0460EBC894692469B4649
:400A8000FEBDC046C046C046C046C046C046C046C046C046C046C046C046C046C046C0468800002028010020840000209C00002080250000000000000230800803D001306D
:400AC0000238FCD1C046C0467047EFF3108072B6704780F31088704770B50400FFF7F5FF0500102C05D8104A136803218B43136016E0202C07D80C490B6803229343023A8E
:400B000013430B600CE0302C07D807490B6803229343013A13430B6002E00020FFF73CFE2800FFF7D6FF70BD30001040002243088B4274D303098B425FD3030A8B4244D3C4
:400B4000030B8B4228D3030C8B420DD3FF22090212BA030C8B4202D31212090265D0030B8B4219D300E0090AC30B8B4201D3CB03C01A5241830B8B4201D38B03C01A524148
:400B8000430B8B4201D34B03C01A5241030B8B4201D30B03C01A5241C30A8B4201D3CB02C01A5241830A8B4201D38B02C01A5241430A8B4201D34B02C01A5241030A8B420F
:400BC00001D30B02C01A5241CDD2C3098B4201D3CB01C01A524183098B4201D38B01C01A524143098B4201D34B01C01A524103098B4201D30B01C01A5241C3088B4201D304
:400C0000CB00C01A524183088B4201D38B00C01A524143088B4201D34B00C01A5241411A00D20146524110467047FFE701B5002000F006F802BDC0460029F7D076E770472D
:400C40007047C046014B18687047C046000100200E4B70B500251E000D4CE41AA410A54204D0AB00F35898470135F8E700F050F8084B00251E00084CE41AA410A54204D00D
:400C8000AB00F35898470135F8E770BD1C0D00001C0D00001C0D0000240D0000002310B59A4203D0CC5CC4540133F9E710BD000000000000BAADC0FFEE0000004261736926
:400CC000632070726F6A6563742C2052780D0A0057616974696E6720666F7220646174612E2E2E0D0A00000052656365697665643A200000EEDBC9B9AA9B8E82766B605600
:400D00004D443B332C241D17100A044300000000F8B5C046F8BC08BC9E4670472901000065020000F8B5C046F8BC08BC9E46704701010000480D0000800000208800000033
:400D40003000000000000000000000000000044005000000010000000000E02EC05D00001800000000366E0100000000000000000000000000000000000000000000000011
:400D800000000000000000000B0D0000000000000000000000000000000000000000000000000000000000000000000000000000000000000000000000000000000000001B
:400DC0000000000000000000A00000200000000000000000000000000000000000000000000000000000000000000000000000000000000000000000000000000000000033
:400E000000000000000000000000000000000000000000000000000000000000000000000000000000000000000000000000000000000000000000000000000000000000B2
:400E40000000000000000000000000000000000000000000000000000000000000000000000000000000000000000000000000000000000000000000000000000000000072
:400E80000000000000000000000000000000000000000000000000000000000000000000000000000000000000000000000000000000000000000000000000000000000032
:400EC00000000000000000000000000000000000000000000000000000000000000000000000000000000000000000000000000000000000000000000000000000000000F2
:0200000490303A
:020000006CD1C1
:0200000490402A
:200000000000000000000000000000000000000000000000000000000000000000000000E0
:0200000490501A
:0C0000000002190111A9000119057E7A07
:0200000490600A
:0100000001FE
:00000001FF