:4000000000100020110000000D0200000D02000010B500F003FC00F001F9C04610B50B4C12232360182000F079FB80225200084B1A60084A084B1A600022084B1A6040320C
:40004000074B1A601123236010BDC046300010400003014040FF008000000140280003400401014010B572B60F4A104B1A60EE2212020F4B1A6022220E4B1A600E4A0F4BD9
:400080001A6008220E4B1A603D320E4B1A600E4A0E4B1A6005220E4B1A60D82212010D4B1A60FFF7BBFF10BDFF0F000000020240000302400000044010001B0008000440B4
:4000C0000C000440000204408E0D180008020440180204400803044000000000000000000000000000000000000000000000000000000000000000000000000000000000BC
:4001000010B5064C2378002B07D1054B002B02D0044800E000BF0123237010BD0801002000000000E80C0000084B10B5002B03D00749084800E000BF07480368002B00D126
:4001400010BD064B002BFBD09847F9E7000000000C010020E80C0000800000200000000010B50122024B1A7000F0B4F810BDC0462401002010B582B005221D49684600F056
:40018000A9FD1C4800F0D2F862B600F08BF80C2000F056FB184800F087F800F061F9052269460A2000F026F900F03EF9134800F07BF8134B1B78002BFBD000F071F900F045
:4001C00067F900F0CDF8C043C0B200F0BDF80D4C0121200000F02EF90B4800F065F8207800F02EFB00F06EF80022054B1A70DDE7EC0C000061010000F40C0000080D000048
:400200002401002030010020200D000010B500F035FD03680C2B00D1FEE7FEE770B50F4E0F4D13E029686B68AC68002202E001C901C30432A242FAD1E868002202E00021A2
:4002400002C304328242FAD11035013E002EE9D100F01AFDFFF78EFFFEE7C046010000006C0D000010B500230AE0032B03D89A000849505800E008489900084A8850013304
:400280001F2BF2D9FFF7EEFE80229205044B1A6010BDC046000000000D0200000000002008ED00E07047C04670B505000078012404E000F0C5FA285D0134E4B20028F8D116
:4002C00070BDC04610B50D2000F0BAFA0A2000F0B7FA10BD034A10680223184010604008C0B2704710000440014B18647047C0460000002010B5040000F017FB044A1368ED
:40030000C0218B43A4011C43146000F012FB10BD00E400E00122014B1A60704700E100E00122014B1A60704780E100E010B50400FFF7F6FF2000FFF7D7FF0320FFF7DAFF34
:40034000FFF7E8FF10BDC04604490A68D2B240239A438001184010430860704700020440024B1868800901231840704704020440022807D0032809D001280AD10322054B68
:400380001A7006E00422034B1A7002E00522014B1A7070478C00002010B50121012000F0F1F80121022000F0EDF80321032000F0E9F80321042000F0E5F84B21052000F0E5
:4003C000E1F82621062000F0DDF800211C2000F0D9F800211D2000F0D5F80121112000F0D1F83B21002000F0CDF80320FFF7C0FF10BDC04610B5002912D00A2810D30B28B9
:4004000002D90F2809D90BE0064B1B78934200D313001A0000F0D0F802E0012200F0CCF810BDC0468C00002010B5012000F064FB10BDC04670B504000D00002809D00020D5
:4004400000F05AFB2900200000F05EF8012000F053FB70BD10B57021072000F093F810BD10B5642000F0DCF800F07AFA002000F043FB012000F034FB00F03AF800F03EF810
:40048000FFF7E8FFFFF788FF962000F0B3F910BD10B501218140C9B2072000F073F810BD10B500F059F87023184020280AD0402802D0102804D101E0062004E0042002E006
:4004C000702000E0052010BD10B5040000F066FA00F08EFA002000F003FB200000F06EFA00F054FA0128FBD100F0FAFA10BDC04610B5E220FFF7E8FF10BDC04610B5E1205C
:40050000FFF7E2FF10BDC046F8B507000E0000F045FA00F06DFA002000F0E2FA612000F04DFA00F033FA0028FBD000F029FA00240BE0FF2000F042FA00F028FA0028FBD0A3
:400540003D1900F01DFA28700134B442F1D3012000F0C6FAF8BDC04610B500F01FFA00F047FA002000F0BCFAFF2000F027FA00F00DFA0128FBD100F0B3FA00F001FAC0B230
:4005800010BDC04670B505000C0000F007FA00F02FFA002000F0A4FA20202843C0B200F00DFA200000F00AFA00F0F0F90228FBD1013800F095FA70BD70B506000D00140052
:4005C00000F0ECF900F014FA002000F089FA20203043C0B200F0F2F92100280000F0FCF900F0D4F9631C9842FAD1012000F078FA70BDC046024A1168024B0B401360704749
:4006000000000740FFFFFFBF034B18688023DB05184000D0012070470000074001BE704710B5040006E0084B586800F075F9074B9C46644480231B029C42F4D8024B9868F6
:40064000604300F069F910BD900000200080FFFF30B583B000F0D8F8002849D000F065F90400244B196889001C2319401831224B1B689B0803221340D940204B1A68204B49
:400680001340204A4A438020C00184466244D20B013A5205520D1343A02252031A431000192902D8184A13430CE0184BCB181B781A39174A525C9A18FF2A00D9FF22920510
:4006C000030013430D4A1360124D2B680193302000F01EFA104A13688021C9050B4313601420FFF79DFF019B2B60200000F021F903B030BD080F0340280003400800074029
:4007000000F800C040420F000000D43FCDF1FF0F2C0D00003000104000000740F0B583B0040018280BD01C2809D0202807D0242805D0282803D02C2801D0302849D100F093
:40074000F4F80190FFF760FF002803D0FFF752FF012600E00026214A136807218B4313601F4BE3181B78DBB21E4A13601E4A13688B4313601D4803687F22934319001C4B9E
:40078000E3181B7813400B430360322000F0C4F8182C16D9114F3B680725AB431A0023001C3B9B082B4013433B60322000F0B4F83A68AA432300183B9B082C001C40144351
:4007C0003C60012E01D1FFF743FF019800F0B1F802E00020FFF722FF03B0F0BD080F0340CDF1FF0F0C0F0340100F0340180F0340B4F1FF0F10B5034B1B7B584300F08CF8BE
:4008000010BDC04690000020034B1B68002B01DA012000E00020704700000740014A024B1A6070476588EDAC38000340000000000000000000000000000000000000000075
:40084000FEB5494652465B460EB407462E4909688A462E4A12682E48022100F083F903002A480068C0182A4900F07CF906001F3EB346234A126801219140C9430C0001253E
:40088000002600F052F8814651460B6823400B605846043000F040F83800F040284090400B68234003430B60584600F035F80136072EF1D900200130012090400B6823400F
:4008C00003430B605846063000F026F8484600F030F8C046C046C0460EBC894692469B46FEBDC046C046C046C046C046C046C046C046C046C046C046C046C046C046C04646
:40090000880000202801002084000020A000002080250000000000000230800803D001300238FCD1C046C0467047EFF3108072B6704780F31088704710B500F069F810BD3F
:4009400010B500F087F810BD10B5044A1368802109060B431360FFF7EFFF10BD0000094010B5064B1B78002B04D1FFF7E9FF0122024B1A70FFF7E8FF10BDC0462C010020FF
:40098000014B18687047C04640030940024B1B681F2018407047C04608030940054B1A68802149020A431A601968034A0A401A607047C04604030940FFFFFEFF044B1B68B9
:4009C0001F221340082BF9D0024B18607047C046080209404002094070B506000D00002403E0305DFFF7EAFF0134AC42F9D370BD054B1A68802149020A431A601968034AED
:400A00000A401A607047C04604020940FFFFFEFF054A1368F02109010B431360034B1A88034B1A607047C046000202402E010020880F094005490A68054B1A408006C0238A
:400A40001B051840104308607047C04620000940FFFFFFF310B5124A124B1A60124A134B1A60134B134A13600721134A1160134A13600023124A1360124A1360124A13607D
:400A8000124A1360124A1360124A1360124A13601268124B1A800020FFF7CCFF10BDC0460F0000010000094001000080200009400701008000030940040309400002094023
:400AC00004020940880E0940C80E0940480F0940080F0940C80F0940880F09402E01002004490A68D2B208239A43C00018401043086070470002044004490A68D2B2402399
:400B00009A43800118401043086070470000044070B50400FFF709FF0500102C05D8104A136803218B43136016E0202C07D80C490B6803229343023A13430B600CE0302CA1
:400B400007D807490B6803229343013A13430B6002E00020FFF762FD2800FFF7EAFE70BD30001040002243088B4274D303098B425FD3030A8B4244D3030B8B4228D3030C70
:400B80008B420DD3FF22090212BA030C8B4202D31212090265D0030B8B4219D300E0090AC30B8B4201D3CB03C01A5241830B8B4201D38B03C01A5241430B8B4201D34B03B0
:400BC000C01A5241030B8B4201D30B03C01A5241C30A8B4201D3CB02C01A5241830A8B4201D38B02C01A5241430A8B4201D34B02C01A5241030A8B4201D30B02C01A5241BE
:400C0000CDD2C3098B4201D3CB01C01A524183098B4201D38B01C01A524143098B4201D34B01C01A524103098B4201D30B01C01A5241C3088B4201D3CB00C01A524183084E
:400C40008B4201D38B00C01A524143088B4201D34B00C01A5241411A00D20146524110467047FFE701B5002000F006F802BDC0460029F7D076E770477047C046014B186827
:400C80007047C046040100200E4B70B500251E000D4CE41AA410A54204D0AB00F35898470135F8E700F050F8084B00251E00084CE41AA410A54204D0AB00F3589847013547
:400CC000F8E770BD540D0000540D0000540D00005C0D0000002310B59A4203D0CC5CC4540133F9E710BD000000000000BAADC0FFEE00000042617369632070726F6A65630B
:400D0000742C2052780D0A0057616974696E6720666F7220646174612E2E2E0D0A00000052656365697665643A200000EEDBC9B9AA9B8E82766B60564D443B332C241D1742
:400D4000100A044300000000F8B5C046F8BC08BC9E4670472901000065020000F8B5C046F8BC08BC9E46704701010000800D0000800000208800000030000000000000000E
:400D800000000000000004400500000005000000010000000000E02EC05D00001800000000366E0100000000000000000000000000000000000000000000000000000000FC
:400DC00000000000430D00000000000000000000000000000000000000000000000000000000000000000000000000000000000000000000000000000000000000000000A3
:400E000000000000A40000200000000000000000000000000000000000000000000000000000000000000000000000000000000000000000000000000000000000000000EE
:400E40000000000000000000000000000000000000000000000000000000000000000000000000000000000000000000000000000000000000000000000000000000000072
:400E80000000000000000000000000000000000000000000000000000000000000000000000000000000000000000000000000000000000000000000000000000000000032
:400EC00000000000000000000000000000000000000000000000000000000000000000000000000000000000000000000000000000000000000000000000000000000000F2
:400F000000000000000000000000000000000000000000000000000000000000000000000000000000000000000000000000000000000000000000000000000000000000B1
:0200000490303A
:0200000072C6C6
:0200000490402A
:200000000000000000000000000000000000000000000000000000000000000000000000E0
:0200000490501A
:0C0000000002190111A900011905846F0C
:0200000490600A
:0100000001FE
:00000001FF