:400000000010002011000000E1010000E101000010B500F0D7FC00F0EBF8C04610B50B4C12232360182000F057FC80225200084B1A60084A084B1A600022084B1A604032CA
:40004000074B1A601123236010BDC046300010400003014040FF008000000140280003400401014010B572B6134A144B1A60EE221202134B1A602022124B1A60C022920207
:40008000114B1A604022114B1A6080221203104B1A60802292010F4B1A6005230E4A13600E490F4A11600F4A1360D82212010E4B1A60FFF7B3FF10BDFF0F00000002024016
:4000C00000030240000004400800044000010440080104400C010440000204408E6D18000802044018020440080304400000000000000000000000000000000000000000F4
:4001000010B5064C2378002B07D1054B002B02D0044800E000BF0123237010BD0801002000000000D00C0000084B10B5002B03D00749084800E000BF07480368002B00D13E
:4001400010BD064B002BFBD09847F9E7000000000C010020D00C0000800000200000000010B500F043FCC043C0B200F033FC0122024B1A7000F0C8FA10BDC04624010020B7
:4001800010B584B062B60522124902A800F096FD114800F0E7FA00F0FBF8052102A800F099F80E4B1B78002BFBD000F00FF900F005F9002000F0BEF801006B46DC1D2000C8
:4001C00000F0DCF8207800F01BFC0022034B1A70E7E7C046D40C0000610100002401002010B500F03FFD03680C2B00D1FEE7FEE770B50F4E0F4D13E029686B68AC680022AE
:4002000002E001C901C30432A242FAD1E868002202E0002102C304328242FAD11035013E002EE9D100F024FDFFF7AAFFFEE7C046010000004C0D000010B500230AE0032B09
:4002400003D89A000849505800E008489900084A885001331F2BF2D9FFF704FF80229205044B1A6010BDC04600000000E10100000000002008ED00E010B50B21002000F02E
:40028000D5F83F21012000F0D1F80321022000F0CDF80321032000F0C9F80321042000F0C5F84B21052000F0C1F82621062000F0BDF800211C2000F0B9F802211D2000F0B5
:4002C000B5F80121112000F0B1F80121122000F0ADF810BD10B5002807D0052900D905210A0001000A2000F0BBF810BD10B5202900D9202105281AD880000D4B1B589F46A2
:40030000112000F093F812E0122000F08FF80EE0132000F08BF80AE0142000F087F806E0152000F083F802E0162000F07FF810BDDC0C000010B505281BD880000E4B1B586A
:400340009F46112000F056F814E0122000F052F810E0132000F04EF80CE0142000F04AF808E0152000F046F804E0162000F042F800E0002010BDC046F40C000010B500F007
:40038000ADF810BD10B57021072000F04FF810BD10B5642000F022FA002000F0FDF9012000F0EEF900F0F0F8FFF766FFFFF7EAFF00F088F800F08CF810BDC04610B5012147
:4003C0008140C9B2072000F031F810BD10B500F0B1F87023184020280AD0402802D0102804D101E0062004E0042002E0002000E0052010BD10B5040000F0E4F800F00CF995
:40040000002000F0BDF9200000F0ECF8FF2000F0E9F800F0CFF80228FBD1013800F0B0F900F0C2F800F0C0F8C0B210BD70B505000C0000F0C7F800F0EFF8002000F0A0F99D
:4004400020202843C0B200F0CDF8200000F0CAF800F0B0F80228FBD1013800F091F970BD70B506000D00140000F0ACF800F0D4F8002000F085F920203043C0B200F0B2F881
:400480002100280000F0BCF800F094F8631C9842FAD1012000F074F970BDC04610B5040000F090F800F0B8F8002000F069F9200000F098F800F07EF80128FBD100F060F967
:4004C00010BDC04610B5E220FFF7E8FF10BDC04610B5E120FFF7E2FF10BDC046F8B507000D00002824D000F06DF800F095F8002000F046F9612000F075F8002403E0FF2040
:4005000000F070F80134AC42F9D300F053F86B1C9842FAD1012000F033F900F045F8002404E03E1900F040F830700134AC42F8D3F8BDC04610B500F045F800F06DF800206C
:4005400000F01EF9FF2000F04DF800F033F80128FBD100F015F900F027F8C0B210BDC04610B500F069F810BD10B500F087F810BD10B5044A1368802109060B431360FFF7E5
:40058000EFFF10BD0000094010B5064B1B78002B04D1FFF7E9FF0122024B1A70FFF7E8FF10BDC04626010020014B18687047C04640030940024B1B681F2018407047C04686
:4005C00008030940054B1A68802149020A431A601968034A0A401A607047C04604030940FFFFFEFF044B1B681F221340082BF9D0024B18607047C0460802094040020940C6
:4006000070B506000D00002403E0305DFFF7EAFF0134AC42F9D370BD054B1A68802149020A431A601968034A0A401A607047C04604020940FFFFFEFF054A1368F0210901F0
:400640000B431360034B1A88034B1A607047C0460002024028010020880F094005490A68054B1A408006C0231B051840104308607047C04620000940FFFFFFF310B5124A9A
:40068000124B1A60124A134B1A60134B134A13600721134A1160134A13600023124A1360124A1360124A1360124A1360124A1360124A1360124A13601268124B1A800020DE
:4006C000FFF7CCFF10BDC0460F0000010000094001000080200009400701008000030940040309400002094004020940880E0940C80E0940480F0940080F0940C80F094047
:40070000880F094028010020034A10684023184010608009C0B2704710010440014B58647047C0460000002010B5040000F0DDF9044A1168044B0B40A4031C43146000F05A
:40074000D8F910BD00E400E0FF3FFFFF0222014B1A60704700E100E00222014B1A60704780E100E010B50400FFF7F6FF2000FFF7D5FF0320FFF7D8FFFFF7E8FF10BDC04659
:4007800004490A68D2B208239A43C00018401043086070470002044004490A68D2B210239A430001184010430860704700020440024A1168024B0B401360704700000740EC
:4007C000FFFFFFBF034B18688023DB05184000D0012070470000074001BE704710B5040006E0084B586800F077F9074B9C46644480231B029C42F4D8024B9868604300F0E7
:400800006BF910BD840000200080FFFF30B583B000F0CEF8002849D000F067F90400244B196889001C2319401831224B1B689B0803221340D940204B1A68204B1340204A6F
:400840004A438020C00184466244D20B013A5205520D1343A02252031A431000192902D8184A13430CE0184BCB181B781A39174A525C9A18FF2A00D9FF22920503001343B2
:400880000D4A1360124D2B680193302000F034F9104A13688021C9050B4313601420FFF79DFF019B2B60200000F023F903B030BD080F0340280003400800074000F800C0F1
:4008C00040420F000000D43FCDF1FF0F0C0D00003000104000000740F0B583B0040018280BD01C2809D0202807D0242805D0282803D02C2801D0302849D100F0F6F801902B
:40090000FFF760FF002803D0FFF752FF012600E00026214A136807218B4313601F4BE3181B78DBB21E4A13601E4A13688B4313601D4803687F22934319001C4BE3181B78CB
:4009400013400B430360322000F0C6F8182C16D9114F3B680725AB431A0023001C3B9B082B4013433B60322000F0B6F83A68AA432300183B9B082C001C4014433C60012E4E
:4009800001D1FFF743FF019800F0B3F802E00020FFF722FF03B0F0BD080F0340CDF1FF0F0C0F0340100F0340180F0340B4F1FF0F034B1B68002B01DA012000E000207047CE
:4009C00000000740014A024B1A6070476588EDAC3800034004490A68D2B240239A438001184010430860704700020440024B186880090123184070470402044000000000FF
:400A0000FEB5494652465B460EB407462E4909688A462E4A12682E48022100F097F803002A480068C0182A4900F090F806001F3EB346234A126801219140C9430C00012556
:400A4000002600F052F8814651460B6823400B605846043000F040F83800F040284090400B68234003430B60584600F035F80136072EF1D900200130012090400B6823404D
:400A800003430B605846063000F026F8484600F030F8C046C046C0460EBC894692469B46FEBDC046C046C046C046C046C046C046C046C046C046C046C046C046C046C04684
:400AC0009C0000202C010020980000209400002080250000000000000230800803D001300238FCD1C046C0467047EFF3108072B6704780F31088704770B50400FFF7F5FF2E
:400B00000500102C05D8104A136803218B43136016E0202C07D80C490B6803229343023A13430B600CE0302C07D807490B6803229343013A13430B6002E00020FFF74CFE59
:400B40002800FFF7D6FF70BD30001040002243088B4274D303098B425FD3030A8B4244D3030B8B4228D3030C8B420DD3FF22090212BA030C8B4202D31212090265D0030BAB
:400B80008B4219D300E0090AC30B8B4201D3CB03C01A5241830B8B4201D38B03C01A5241430B8B4201D34B03C01A5241030B8B4201D30B03C01A5241C30A8B4201D3CB02A6
:400BC000C01A5241830A8B4201D38B02C01A5241430A8B4201D34B02C01A5241030A8B4201D30B02C01A5241CDD2C3098B4201D3CB01C01A524183098B4201D38B01C01AB8
:400C0000524143098B4201D34B01C01A524103098B4201D30B01C01A5241C3088B4201D3CB00C01A524183088B4201D38B00C01A524143088B4201D34B00C01A5241411A8E
:400C400000D20146524110467047FFE701B5002000F006F802BDC0460029F7D076E770477047C046014B18687047C046000100200E4B70B500251E000D4CE41AA410A5422E
:400C800004D0AB00F35898470135F8E700F04CF8084B00251E00084CE41AA410A54204D0AB00F35898470135F8E770BD340D0000340D0000340D00003C0D0000002310B5E0
:400CC0009A4203D0CC5CC4540133F9E710BD000000000000BAADC0FFEE000000000300000803000010030000180300002003000028030000420300004A030000520300009F
:400D00005A030000620300006A030000EEDBC9B9AA9B8E82766B60564D443B332C241D17100A044300000000F8B5C046F8BC08BC9E4670472901000039020000F8B5C0468B
:400D4000F8BC08BC9E46704701010000600D00008000002088000000280000000000000000000000010000000000E02EC05D00001800000000366E0100000440050000006F
:400D80000000000000000000000000000000000000000000000000000000000000000000230D00000000000000000000000000000000000000000000000000000000000003
:400DC0000000000000000000000000000000000000000000000000000000000000000000A00000200000000000000000000000000000000000000000000000000000000033
:400E000000000000000000000000000000000000000000000000000000000000000000000000000000000000000000000000000000000000000000000000000000000000B2
:400E40000000000000000000000000000000000000000000000000000000000000000000000000000000000000000000000000000000000000000000000000000000000072
:400E80000000000000000000000000000000000000000000000000000000000000000000000000000000000000000000000000000000000000000000000000000000000032
:400EC00000000000000000000000000000000000000000000000000000000000000000000000000000000000000000000000000000000000000000000000000000000000F2
:0200000490303A
:020000007B97EC
:0200000490402A
:200000000000000000000000000000000000000000000000000000000000000000000000E0
:0200000490501A
:0C0000000002190111A9000119058D4032
:0200000490600A
:0100000001FE
:00000001FF