:400000000010002011000000410200004102000010B500F079FC00F01BF9C04610B50B4C12232360182000F0EFFB80225200084B1A60084A084B1A600022084B1A6040329E
:40004000074B1A601123236010BDC046300010400003014040FF008000000140280003400401014010B572B60F4A104B1A60EE2212020F4B1A6022220E4B1A600E4A0F4BD9
:400080001A6008220E4B1A603D320E4B1A600E4A0E4B1A6005220E4B1A60D82212010D4B1A60FFF7BBFF10BDFF0F000000020240000302400000044010001B0008000440B4
:4000C0000C000440000204408E0D180008020440180204400803044000000000000000000000000000000000000000000000000000000000000000000000000000000000BC
:4001000010B5064C2378002B07D1054B002B02D0044800E000BF0123237010BD0801002000000000B00D0000084B10B5002B03D00749084800E000BF07480368002B00D15D
:4001400010BD064B002BFBD09847F9E7000000000C010020B00D0000800000200000000010B50122024B1A7000F0CEF810BDC0462401002010B584B005222B4902A800F067
:400180000DFE20226B46DA716B469C1D00232370264800F0E5F862B600F09EF80C2000F0BFFB234800F09AF800F0B6F901222100002000F09BF9052202A90A2000F050F97E
:4001C000052102A800F066F900F074F9194800F085F8194B1B78002BFBD000F0DBF8C043C0B200F0CBF80022134B1A7000F068F900F086F96B46DC1D0121200000F066F9D8
:400200006B46991D0B7801330B700122002000F06DF900F04FF9094800F060F8207800F07FFB00F069F8D1E7B40D000061010000BC0D0000D00D000024010020E80D0000AD
:4002400010B500F07FFD03680C2B00D1FEE7FEE770B50F4E0F4D13E029686B68AC68002202E001C901C30432A242FAD1E868002202E0002102C304328242FAD11035013ECD
:40028000002EE9D100F064FDFFF774FFFEE7C04601000000300E000010B500230AE0032B03D89A000849505800E008489900084A885001331F2BF2D9FFF7D4FE80229205C7
:4002C000044B1A6010BDC04600000000410200000000002008ED00E07047C04670B505000078012404E000F01BFB285D0134E4B20028F8D170BDC04610B50D2000F010FB5B
:400300000A2000F00DFB10BD034A10680223184010604008C0B2704710000440014B18647047C0460000002010B5040000F06DFB044A1368C0218B43A4011C43146000F0B1
:4003400068FB10BD00E400E00122014B1A60704700E100E00122014B1A60704780E100E010B50400FFF7F6FF2000FFF7D7FF0320FFF7DAFFFFF7E8FF10BDC04604490A6846
:40038000D2B240239A438001184010430860704700020440024B1868800901231840704704020440022807D0032809D001280AD10322054B1A7006E00422034B1A7002E047
:4003C0000522014B1A7070478C00002030B58BB001246B461C7001226946012000F046F901A90C700122022000F040F902A903250D700122032000F039F903A90D70012261
:40040000042000F033F904A94B230B700122052000F02CF905A926230B700122062000F025F906A90C7001221C2000F01FF907A906230B7001221D2000F018F908A90C704C
:400440000122112000F012F909A91B230B700122002000F00BF90320FFF7A4FF0BB030BD10B5002912D00A2810D30B2802D90F2809D90BE0064B1B78934200D313001A0077
:4004800000F0F4F802E0012200F0F0F810BDC0468C00002010B5002808D0054B1A788A4200D30A000100102000F0E0F810BDC0468C00002010B5012000F0ACF810BDC046EF
:4004C00010B5002000F0A6F810BDC04670B504000D00002809D0002000F09CF82900200000F050F8012000F095F870BD10B5002904D0202A00D9202200F060F810BDC0464D
:4005000000B583B06B46D91D70230B700122072000F0ACF803B000BD10B5642000F0F4F800F08EFA012000F06BF8002000F072F800F01CF800F020F8FFF7E2FFFFF746FF27
:40054000962000F0CDF910BD10B584B06B46D87107330F246C440022227001322100180000F062F8207804B010BDC04610B5E220FFF7EAFF10BDC04610B5E120FFF7E4FF91
:4005800010BDC046F8B500AF04000E004A1C0B000833DB08DB006946C91A8D466D46CB1A9D46612119702900684600F03DF8691C3200200000F0F2FBBD46F8BDF8B500AFE1
:4005C000551C13000833DB08DB006C46E41AA5466E46F31A9D4658235B4218432070601C00F0DCFB2A006946200000F01DF8BD46F8BDC04610B500F041FA00F05DFA10BD39
:4006000010B5002802D100F0CFFA02E0012000F0CBFA10BD10B5002802D100F0D1FA02E0012000F0CDFA10BDF0B5474680B480460F001600FFF7DEFF0020FFF7E1FF00247C
:400640000CE04346185D00F029FA00F00FFA0028FBD03D1900F004FA28700134B442F0D30120FFF7CDFF04BC9046F0BDF8B500AF541C13000833DB08DB006D46ED1AAD461C
:400680006E46F31A9D466E46202318433070701C00F084FB220029006846FFF7C5FF2878BD46F8BD0C4B1B689B001C22134018330A4A1268920803210A40D34008490868A3
:4006C000084A02400A60084A944663441B78DBB2064A13607047C046080F03402800034000000740FFFFFFBFCDF1FF0F0C0F0340034B18688023DB05184000D00120704746
:400700000000074001BE704710B5040006E0084B586800F071F9074B9C46644480231B029C42F4D8024B9868604300F065F910BD900000200080FFFF70B582B000F0DAF848
:4007400000284DD000F061F90500264B1A6892001C231A401832244B1B689B0803210B40DA400021214B1960214C2168214B0B4021494A438021C9018C466244D20B013ABA
:400780005205520D1343A0225203134323601B4B1B680193302000F01FFA194A13688021C9050B4313602668164B1E40002407E00120FFF7A9FF1034A30533430C4A136017
:4007C000EE2CF5D90120FFF79FFFFF239B051E43074B1E60019A094B1A60280000F019F902B070BD080F0340280003400C0F03400800074000F800C040420F0030001040BC
:4008000000000740FFFF3FC0F0B583B0040018280BD01C2809D0202807D0242805D0282803D02C2801D0302849D100F0EEF80190FFF75EFF002803D0FFF734FF012600E081
:400840000026214A136807218B4313601F4BE3181B78DBB21E4A13601E4A13688B4313601D4803687F22934319001C4BE3181B7813400B430360322000F0BEF8182C16D9FB
:40088000114F3B680725AB431A0023001C3B9B082B4013433B60322000F0AEF83A68AA432300183B9B082C001C4014433C60012E01D1FFF741FF019800F0ABF802E0002018
:4008C000FFF720FF03B0F0BD080F0340CDF1FF0F0C0F0340100F0340180F0340B4F1FF0F10B5034B1B7B584300F086F810BDC04690000020034B1B68002B01DA012000E073
:400900000020704700000740014A024B1A6070476588EDAC380003400000000000000000FEB5494652465B460EB407462E4909688A462E4A12682E48022100F077F903009F
:400940002A480068C0182A4900F070F906001F3EB346234A126801219140C9430C000125002600F052F8814651460B6823400B605846043000F040F83800F04028409040EC
:400980000B68234003430B60584600F035F80136072EF1D900200130012090400B68234003430B605846063000F026F8484600F030F8C046C046C0460EBC894692469B460A
:4009C000FEBDC046C046C046C046C046C046C046C046C046C046C046C046C046C046C046880000202801002084000020A000002080250000000000000230800803D001302A
:400A00000238FCD1C046C0467047EFF3108072B6704780F31088704710B500F05DF810BD10B500F07BF810BD10B5044A1368802109060B431360FFF7EFFF10BD0000094014
:400A400010B5064B1B78002B04D1FFF7E9FF0122024B1A70FFF7E8FF10BDC0462C010020014B18687047C04640030940024B1B681F2018407047C04608030940054B1A6899
:400A8000802149020A431A601968034A0A401A607047C04604030940FFFFFEFF044B1B681F221340082BF9D0024B18607047C0460802094040020940054B1A688021490269
:400AC0000A431A601968034A0A401A607047C04604020940FFFFFEFF054A1368F02109010B431360034B1A88034B1A607047C046000202402E010020880F094005490A6848
:400B0000054B1A408006C0231B051840104308607047C04620000940FFFFFFF310B5124A124B1A60124A134B1A60134B134A13600721134A1160134A13600023124A136047
:400B4000124A1360124A1360124A1360124A1360124A1360124A13601268124B1A800020FFF7CCFF10BDC0460F00000100000940010000802000094007010080000309405F
:400B8000040309400002094004020940880E0940C80E0940480F0940080F0940C80F0940880F09402E01002004490A68D2B208239A43C000184010430860704700020440E3
:400BC00004490A68D2B240239A43800118401043086070470000044070B50400FFF715FF0500102C05D8104A136803218B43136016E0202C07D80C490B6803229343023A38
:400C000013430B600CE0302C07D807490B6803229343013A13430B6002E00020FFF772FD2800FFF7F6FE70BD30001040002243088B4274D303098B425FD3030A8B4244D36F
:400C4000030B8B4228D3030C8B420DD3FF22090212BA030C8B4202D31212090265D0030B8B4219D300E0090AC30B8B4201D3CB03C01A5241830B8B4201D38B03C01A524147
:400C8000430B8B4201D34B03C01A5241030B8B4201D30B03C01A5241C30A8B4201D3CB02C01A5241830A8B4201D38B02C01A5241430A8B4201D34B02C01A5241030A8B420E
:400CC00001D30B02C01A5241CDD2C3098B4201D3CB01C01A524183098B4201D38B01C01A524143098B4201D34B01C01A524103098B4201D30B01C01A5241C3088B4201D303
:400D0000CB00C01A524183088B4201D38B00C01A524143088B4201D34B00C01A5241411A00D20146524110467047FFE701B5002000F006F802BDC0460029F7D076E770472C
:400D40007047C046014B18687047C046040100200E4B70B500251E000D4CE41AA410A54204D0AB00F35898470135F8E700F04EF8084B00251E00084CE41AA410A54204D00A
:400D8000AB00F35898470135F8E770BD180E0000180E0000180E0000200E0000002310B59A4203D0CC5CC4540133F9E710BD000000000000BAADC0FFEE0000004563686F31
:400DC0002070726F6A6563742C2052780D0A000057616974696E6720666F7220646174612E2E2E0D0A00000052656365697665643A2000005374617475733A203078000013
:400E0000253032580D0A000043000000F8B5C046F8BC08BC9E4670472901000099020000F8B5C046F8BC08BC9E46704701010000400E000080000020880000002800000088
:400E400000000000000004400500000005000000010000000000E02EC05D00001800000000366E01000000000000000000000000000000000000000000000000000000003B
:400E800000000000080E000000000000000000000000000000000000000000000000000000000000000000000000000000000000000000000000000000000000000000001C
:400EC00000000000A400002000000000000000000000000000000000000000000000000000000000000000000000000000000000000000000000000000000000000000002E
:400F000000000000000000000000000000000000000000000000000000000000000000000000000000000000000000000000000000000000000000000000000000000000B1
:400F40000000000000000000000000000000000000000000000000000000000000000000000000000000000000000000000000000000000000000000000000000000000071
:400F80000000000000000000000000000000000000000000000000000000000000000000000000000000000000000000000000000000000000000000000000000000000031
:400FC00000000000000000000000000000000000000000000000000000000000000000000000000000000000000000000000000000000000000000000000000000000000F1
:0200000490303A
:020000009E461A
:0200000490402A
:200000000000000000000000000000000000000000000000000000000000000000000000E0
:0200000490501A
:0C0000000002190111A900011905AFEF61
:0200000490600A
:0100000001FE
:00000001FF