:400000000010002011000000410200004102000010B500F09FFC00F01BF9C04610B50B4C12232360182000F015FC80225200084B1A60084A084B1A600022084B1A60403251
:40004000074B1A601123236010BDC046300010400003014040FF008000000140280003400401014010B572B60F4A104B1A60EE2212020F4B1A6022220E4B1A600E4A0F4BD9
:400080001A6008220E4B1A603D320E4B1A600E4A0E4B1A6005220E4B1A60D82212010D4B1A60FFF7BBFF10BDFF0F000000020240000302400000044010001B0008000440B4
:4000C0000C000440000204408E0D180008020440180204400803044000000000000000000000000000000000000000000000000000000000000000000000000000000000BC
:4001000010B5064C2378002B07D1054B002B02D0044800E000BF0123237010BD0801002000000000E00C0000084B10B5002B03D00749084800E000BF07480368002B00D12E
:4001400010BD064B002BFBD09847F9E7000000000C010020E00C0000800000200000000010B50122024B1A7000F08EFA10BDC0462401002010B584B005222B4902A800F076
:40018000A5FD20226B46DA716B469C1D00232370264800F0A5FA62B600F08AF90C2000F0FFFB234800F086F900F004F901222100002000F0EFF8052102A800F0B7F805210A
:4001C00002A800F0BFF800F0C9F81A4800F072F9194B1B78002BFBD000F0D0FBC043C0B200F0C0FB0022144B1A7000F0BDF800F0DBF86B46DC1D0121200000F0BBF86B46C5
:40020000991D0B7801330B700122002000F0C2F800F0A4F8094800F04DF9207800F0C0FB00F056F9D1E7C046E40C000061010000EC0C0000000D000024010020180D0000D5
:4002400010B500F017FD03680C2B00D1FEE7FEE770B50F4E0F4D13E029686B68AC68002202E001C901C30432A242FAD1E868002202E0002102C304328242FAD11035013E35
:40028000002EE9D100F0FCFCFFF774FFFEE7C04601000000780D000010B500230AE0032B03D89A000849505800E008489900084A885001331F2BF2D9FFF7D4FE80229205E9
:4002C000044B1A6010BDC04600000000410200000000002008ED00E010B50121012000F0DBFB0121022000F0D7FB0321032000F0D3FB0321042000F0CFFB4B21052000F0CE
:40030000CBFB2621062000F0C7FB01211C2000F0C3FB06211D2000F0BFFB0121112000F0BBFB1B21002000F0B7FB10BD10B5002807D0052900D905210A0001000A2000F0E4
:40034000C5FB10BD10B5002807D0052900D905210A000100102000F0B9FB10BD10B5012000F0D8F910BDC04610B5002000F0D2F910BDC04670B504000D00002809D000200F
:4003800000F0C8F92900200000F04CF8012000F0C1F970BD10B5002904D0202A00D9202200F068F810BDC04610B57021072000F073FB10BD10B5642000F0CEF9002000F015
:4003C000A9F9012000F09AF900F09EF800F01EF800F022F8FFF7E8FFFFF77EFF962000F0A5FA10BD10B5040000F0ACF800F0D4F8002000F083F9200000F0B4F800F09AF8DC
:400400000128FBD100F07AF910BDC04610B5E220FFF7E8FF10BDC04610B5E120FFF7E2FF10BDC046F8B507000E0000F08BF800F0B3F8002000F062F9612000F093F800F083
:4004400079F80028FBD000F06FF800240BE0FF2000F088F800F06EF80028FBD03D1900F063F828700134B442F1D3012000F046F9F8BDC04670B505000E00140000F062F811
:4004800000F08AF8002000F039F9582040420543E8B200F067F82100300000F071F800F049F8631C9842FAD1012000F027F970BD7047C04670B505000078012404E000F0A8
:4004C0006FFA285D0134E4B20028F8D170BDC04610B50D2000F064FA0A2000F061FA10BD10B500F069F810BD10B500F087F810BD10B5044A1368802109060B431360FFF7C4
:40050000EFFF10BD0000094010B5064B1B78002B04D1FFF7E9FF0122024B1A70FFF7E8FF10BDC0462C010020014B18687047C04640030940024B1B681F2018407047C04600
:4005400008030940054B1A68802149020A431A601968034A0A401A607047C04604030940FFFFFEFF044B1B681F221340082BF9D0024B18607047C046080209404002094046
:4005800070B506000D00002403E0305DFFF7EAFF0134AC42F9D370BD054B1A68802149020A431A601968034A0A401A607047C04604020940FFFFFEFF054A1368F021090171
:4005C0000B431360034B1A88034B1A607047C046000202402E010020880F094005490A68054B1A408006C0231B051840104308607047C04620000940FFFFFFF310B5124A15
:40060000124B1A60124A134B1A60134B134A13600721134A1160134A13600023124A1360124A1360124A1360124A1360124A1360124A1360124A13601268124B1A8000205E
:40064000FFF7CCFF10BDC0460F0000010000094001000080200009400701008000030940040309400002094004020940880E0940C80E0940480F0940080F0940C80F0940C7
:40068000880F09402E010020034A10680223184010604008C0B2704710000440014B18647047C0460000002010B5040000F0EDF9044A1368C0218B43A4011C43146000F070
:4006C000E8F910BD00E400E00122014B1A60704700E100E00122014B1A60704780E100E010B50400FFF7F6FF2000FFF7D7FF0320FFF7DAFFFFF7E8FF10BDC04604490A6845
:40070000D2B208239A43C00018401043086070470002044004490A68D2B240239A438001184010430860704700000440024A1168024B0B401360704700000740FFFFFFBFC1
:40074000034B18688023DB05184000D0012070470000074001BE704710B5040006E0084B586800F089F9074B9C46644480231B029C42F4D8024B9868604300F07DF910BDCE
:400780008C0000200080FFFF30B583B000F0D8F8002849D000F079F90400244B196889001C2319401831224B1B689B0803221340D940204B1A68204B1340204A4A438020D0
:4007C000C00184466244D20B013A5205520D1343A02252031A431000192902D8184A13430CE0184BCB181B781A39174A525C9A18FF2A00D9FF229205030013430D4A136096
:40080000124D2B680193302000F07EF9104A13688021C9050B4313601420FFF79DFF019B2B60200000F035F903B030BD080F0340280003400800074000F800C040420F004E
:400840000000D43FCDF1FF0F380D00003000104000000740F0B583B0040018280BD01C2809D0202807D0242805D0282803D02C2801D0302849D100F008F90190FFF760FFA8
:40088000002803D0FFF752FF012600E00026214A136807218B4313601F4BE3181B78DBB21E4A13601E4A13688B4313601D4803687F22934319001C4BE3181B7813400B4300
:4008C0000360322000F0D8F8182C16D9114F3B680725AB431A0023001C3B9B082B4013433B60322000F0C8F83A68AA432300183B9B082C001C4014433C60012E01D1FFF784
:4009000043FF019800F0C5F802E00020FFF722FF03B0F0BD080F0340CDF1FF0F0C0F0340100F0340180F0340B4F1FF0F10B5034B1B7B584300F0A0F810BDC0468C00002068
:40094000034B1B68002B01DA012000E00020704700000740014A024B1A6070476588EDAC3800034004490A68D2B240239A438001184010430860704700020440024B1868D6
:400980008009012318407047040204400000000000000000000000000000000000000000FEB5494652465B460EB407462E4909688A462E4A12682E48022100F0CFF80300AA
:4009C0002A480068C0182A4900F0C8F806001F3EB346234A126801219140C9430C000125002600F052F8814651460B6823400B605846043000F040F83800F0402840904015
:400A00000B68234003430B60584600F035F80136072EF1D900200130012090400B68234003430B605846063000F026F8484600F030F8C046C046C0460EBC894692469B4689
:400A4000FEBDC046C046C046C046C046C046C046C046C046C046C046C046C046C046C0468800002028010020840000209C00002080250000000000000230800803D00130AD
:400A80000238FCD1C046C0467047EFF3108072B6704780F31088704770B505000C00FFF751FDFFF779FD0020FFF728FE20202843C0B2FFF757FD2000FFF754FDFFF73AFD3C
:400AC0000228FBD10138FFF719FE70BD70B506000D001400FFF736FDFFF75EFD0020FFF70DFE20203043C0B2FFF73CFD21002800FFF746FDFFF71EFD631C9842FAD101207A
:400B0000FFF7FCFD70BDC04670B50400FFF7BDFF0500102C05D8104A136803218B43136016E0202C07D80C490B6803229343023A13430B600CE0302C07D807490B68032270
:400B40009343013A13430B6002E00020FFF702FE2800FFF79EFF70BD30001040002243088B4274D303098B425FD3030A8B4244D3030B8B4228D3030C8B420DD3FF22090208
:400B800012BA030C8B4202D31212090265D0030B8B4219D300E0090AC30B8B4201D3CB03C01A5241830B8B4201D38B03C01A5241430B8B4201D34B03C01A5241030B8B4241
:400BC00001D30B03C01A5241C30A8B4201D3CB02C01A5241830A8B4201D38B02C01A5241430A8B4201D34B02C01A5241030A8B4201D30B02C01A5241CDD2C3098B4201D3FA
:400C0000CB01C01A524183098B4201D38B01C01A524143098B4201D34B01C01A524103098B4201D30B01C01A5241C3088B4201D3CB00C01A524183088B4201D38B00C01A54
:400C4000524143088B4201D34B00C01A5241411A00D20146524110467047FFE701B5002000F006F802BDC0460029F7D076E770477047C046014B18687047C046000100204F
:400C80000E4B70B500251E000D4CE41AA410A54204D0AB00F35898470135F8E700F05AF8084B00251E00084CE41AA410A54204D0AB00F35898470135F8E770BD600D0000A6
:400CC000600D0000600D0000680D0000002310B59A4203D0CC5CC4540133F9E710BD000000000000BAADC0FFEE0000004563686F2070726F6A6563742C2052780D0A000016
:400D000057616974696E6720666F7220646174612E2E2E0D0A00000052656365697665643A2000005374617475733A2030780000253032580D0A0000EEDBC9B9AA9B8E8281
:400D4000766B60564D443B332C241D17100A044300000000F8B5C046F8BC08BC9E4670472901000099020000F8B5C046F8BC08BC9E46704701010000880D00008000002070
:400D80008800000028000000000000000000044005000000010000000000E02EC05D00001800000000366E0100000000000000000000000000000000000000000000000051
:400DC00000000000000000004F0D00000000000000000000000000000000000000000000000000000000000000000000000000000000000000000000000000000000000097
:400E00000000000000000000A000002000000000000000000000000000000000000000000000000000000000000000000000000000000000000000000000000000000000F2
:400E40000000000000000000000000000000000000000000000000000000000000000000000000000000000000000000000000000000000000000000000000000000000072
:400E80000000000000000000000000000000000000000000000000000000000000000000000000000000000000000000000000000000000000000000000000000000000032
:400EC00000000000000000000000000000000000000000000000000000000000000000000000000000000000000000000000000000000000000000000000000000000000F2
:400F000000000000000000000000000000000000000000000000000000000000000000000000000000000000000000000000000000000000000000000000000000000000B1
:0200000490303A
:0200000089B9BC
:0200000490402A
:200000000000000000000000000000000000000000000000000000000000000000000000E0
:0200000490501A
:0C0000000002190111A9000119059B6202
:0200000490600A
:0100000001FE
:00000001FF