:400000000010002011000000050200000502000010B500F04BFD00F0FDF8C04610B50B4C12232360182000F0C1FC80225200084B1A60084A084B1A600022084B1A6040328F
:40004000074B1A601123236010BDC046300010400003014040FF008000000140280003400401014010B572B6144A154B1A60EE221202144B1A602022134B1A60D82252032A
:40008000124B1A604022124B1A6080221203114B1A6080229201104B1A6045220F4B1A600F4A104B1A6005220F4B1A60D82212010E4B1A60FFF7B2FF10BDC046FF0F0000CD
:4000C0000002024000030240000004400800044000010440080104400C010440000204408E0D18000802044018020440080304400000000000000000000000000000000010
:4001000010B5064C2378002B07D1054B002B02D0044800E000BF0123237010BD0801002000000000D00D0000084B10B5002B03D00749084800E000BF07480368002B00D13D
:4001400010BD064B002BFBD09847F9E7000000000C010020D00D0000800000200000000010B50122024B1A7000F01AFB10BDC0462401002010B582B062B605221C496846DD
:4001800000F01CFE1B4800F039FB00F031FA0C2000F0B6FC184800F02DFA00F03BF9052269460A2000F0DEF80521684600F0F4F800F00EF9114B1B78002BFBD000F050F99F
:4001C00000F040F900F086FCC043C0B200F076FC112000F0F1F80100094C200000F0FEF8207800F08DFC0022044B1A70E2E7C046D40D000061010000DC0D000024010020DB
:400200003001002010B500F0ADFD03680C2B00D1FEE7FEE770B50F4E0F4D13E029686B68AC68002202E001C901C30432A242FAD1E868002202E0002102C304328242FAD112
:400240001035013E002EE9D100F092FDFFF792FFFEE7C04601000000180E000010B500230AE0032B03D89A000849505800E008489900084A885001331F2BF2D9FFF7F2FE6A
:4002800080229205044B1A6010BDC04600000000050200000000002008ED00E0022807D0032809D001280AD10322054B1A7006E00422034B1A7002E00522014B1A707047EB
:4002C0008400002010B58CB001A93F230B700122012000F071F902A903240C700122022000F06AF903A90C700122032000F064F904A90C700122042000F05EF905A9022309
:400300000B700122052000F057F906A926230B700122062000F050F907A900240C7001221C2000F049F908A90C7001221D2000F043F909A90C700122112000F03DF90AA9D0
:400340000C700122122000F037F90BA90B230B700122002000F030F90320FFF79FFF0CB010BDC04610B5002912D00A2810D30B2802D90F2809D90BE0064B1B78934200D30A
:4003800013001A0000F018F902E0012200F014F910BDC0468400002010B5002808D0054B1A788A4200D30A000100102000F004F910BDC0468400002010B582B06B46DC1D10
:4003C0000122210000F0DCF8207802B010BDC04610B5012000F0A8F810BDC04670B504000D00002809D0002000F09EF82900200000F068F8012000F097F870BD00B583B064
:400400006B46D91D70230B700122072000F0D4F803B000BD10B5642000F048FA00F00CF9012000F077F8002000F07EF800F03EF800F042F8FFF7E2FFFFF744FF962000F015
:4004400021FB10BD00B583B0012383406A46D11D0B700122072000F0AFF803B000BDC04610B500F04BF87023184020280AD0402802D0102804D101E0062004E0042002E017
:40048000702000E0052010BD10B584B06B46D87107330F246C440022227001322100180000F04CF8207804B010BDC04610B5E220FFF7EAFF10BDC04610B5E120FFF7E4FF3F
:4004C00010BDC046F8B500AF04000E004A1C0B000833DB08DB006946C91A8D466D46CB1A9D46612119702900684600F027F8691C3200200000F062FCBD46F8BD10B5FF20BF
:40050000FFF7C2FF10BDC04610B500F0B3F800F0CFF810BD10B5002802D100F07DF902E0012000F079F910BD10B5002802D100F07FF902E0012000F07BF910BDF0B5474667
:4005400080B480460F001600FFF7DEFF0020FFF7E1FF00240CE04346185D00F09BF800F081F80028FBD03D1900F076F828700134B442F0D30120FFF7CDFF04BC9046F0BD46
:40058000F8B500AF0C001600013233000833DB08DB006946C91A8D466D46CB1A9D4618706846FFF7CBFF691C3200200000F006FC2878BD46F8BDC046F8B500AF541C130082
:4005C0000833DB08DB006D46ED1AAD466E46F31A9D466E46202318433070701C00F0EEFB220029006846FFF7A9FF2878BD46F8BD7047C04670B505000078012404E000F013
:400600007FFA285D0134E4B20028F8D170BDC04610B500F05DF810BD10B500F07BF810BD10B5044A1368802109060B431360FFF7EFFF10BD0000094010B5064B1B78002B34
:4006400004D1FFF7E9FF0122024B1A70FFF7E8FF10BDC0462C010020014B18687047C04640030940024B1B681F2018407047C04608030940054B1A68802149020A431A60BE
:400680001968034A0A401A607047C04604030940FFFFFEFF044B1B681F221340082BF9D0024B18607047C0460802094040020940054B1A68802149020A431A601968034A8B
:4006C0000A401A607047C04604020940FFFFFEFF054A1368F02109010B431360034B1A88034B1A607047C046000202402E010020880F094005490A68054B1A408006C023CE
:400700001B051840104308607047C04620000940FFFFFFF310B5124A124B1A60124A134B1A60134B134A13600721134A1160134A13600023124A1360124A1360124A1360C0
:40074000124A1360124A1360124A1360124A13601268124B1A800020FFF7CCFF10BDC0460F0000010000094001000080200009400701008000030940040309400002094066
:4007800004020940880E0940C80E0940480F0940080F0940C80F0940880F09402E010020034A10684023184010608009C0B2704710010440014B58647047C04600000020C1
:4007C00010B5040000F011FA044A1168044B0B40A4031C43146000F00CFA10BD00E400E0FF3FFFFF0222014B1A60704700E100E00222014B1A60704780E100E010B504008A
:40080000FFF7F6FF2000FFF7D5FF0320FFF7D8FFFFF7E8FF10BDC04604490A68D2B208239A43C00018401043086070470002044004490A68D2B240239A4380011840104379
:4008400008607047000004400C4B1B689B001C22134018330A4A1268920803210A40D34008490868084A02400A60084A944663441B78DBB2064A13607047C046080F03404F
:400880002800034000000740FFFFFFBFCDF1FF0F0C0F0340034B18688023DB05184000D0012070470000074001BE704710B5040006E0084B586800F08FF9074B9C4664447C
:4008C00080231B029C42F4D8024B9868604300F083F910BD900000200080FFFF70B582B000F0DAF800284DD000F07FF90500264B1A6892001C231A401832244B1B689B086F
:4009000003210B40DA400021214B1960214C2168214B0B4021494A438021C9018C466244D20B013A5205520D1343A0225203134323601B4B1B680193302000F05DF9194A17
:4009400013688021C9050B4313602668164B1E40002407E00120FFF7A9FF1034A30533430C4A1360EE2CF5D90120FFF79FFFFF239B051E43074B1E60019A094B1A60280069
:4009800000F037F902B070BD080F0340280003400C0F03400800074000F800C040420F003000104000000740FFFF3FC0F0B583B0040018280BD01C2809D0202807D024283A
:4009C00005D0282803D02C2801D0302849D100F00CF90190FFF75EFF002803D0FFF734FF012600E00026214A136807218B4313601F4BE3181B78DBB21E4A13601E4A1368AC
:400A00008B4313601D4803687F22934319001C4BE3181B7813400B430360322000F0DCF8182C16D9114F3B680725AB431A0023001C3B9B082B4013433B60322000F0CCF81D
:400A40003A68AA432300183B9B082C001C4014433C60012E01D1FFF741FF019800F0C9F802E00020FFF720FF03B0F0BD080F0340CDF1FF0F0C0F0340100F0340180F03400B
:400A8000B4F1FF0F10B5034B1B7B584300F0A4F810BDC04690000020034B1B68002B01DA012000E00020704700000740014A024B1A6070476588EDAC3800034004490A68B1
:400AC000D2B240239A438001184010430860704700020440024B186880090123184070470402044000000000000000000000000000000000000000000000000000000000CE
:400B0000FEB5494652465B460EB407462E4909688A462E4A12682E48022100F097F803002A480068C0182A4900F090F806001F3EB346234A126801219140C9430C00012555
:400B4000002600F052F8814651460B6823400B605846043000F040F83800F040284090400B68234003430B60584600F035F80136072EF1D900200130012090400B6823404C
:400B800003430B605846063000F026F8484600F030F8C046C046C0460EBC894692469B46FEBDC046C046C046C046C046C046C046C046C046C046C046C046C046C046C04683
:400BC0008C0000202801002088000020A000002080250000000000000230800803D001300238FCD1C046C0467047EFF3108072B6704780F31088704770B50400FFF7F5FF45
:400C00000500102C05D8104A136803218B43136016E0202C07D80C490B6803229343023A13430B600CE0302C07D807490B6803229343013A13430B6002E00020FFF734FE70
:400C40002800FFF7D6FF70BD30001040002243088B4274D303098B425FD3030A8B4244D3030B8B4228D3030C8B420DD3FF22090212BA030C8B4202D31212090265D0030BAA
:400C80008B4219D300E0090AC30B8B4201D3CB03C01A5241830B8B4201D38B03C01A5241430B8B4201D34B03C01A5241030B8B4201D30B03C01A5241C30A8B4201D3CB02A5
:400CC000C01A5241830A8B4201D38B02C01A5241430A8B4201D34B02C01A5241030A8B4201D30B02C01A5241CDD2C3098B4201D3CB01C01A524183098B4201D38B01C01AB7
:400D0000524143098B4201D34B01C01A524103098B4201D30B01C01A5241C3088B4201D3CB00C01A524183088B4201D38B00C01A524143088B4201D34B00C01A5241411A8D
:400D400000D20146524110467047FFE701B5002000F006F802BDC0460029F7D076E770477047C046014B18687047C046040100200E4B70B500251E000D4CE41AA410A54229
:400D800004D0AB00F35898470135F8E700F032F8084B00251E00084CE41AA410A54204D0AB00F35898470135F8E770BD000E0000000E0000000E0000080E0000002310B5C5
:400DC0009A4203D0CC5CC4540133F9E710BD000000000000BAADC0FFEE00000042617369632070726F6A6563742C2052780D0A0043000000F8B5C046F8BC08BC9E467047E0
:400E0000290100005D020000F8B5C046F8BC08BC9E46704701010000280E000080000020880000003000000000000000050000000000044005000000010000000000E02E76
:400E4000C05D00001800000000366E010000000000000000000000000000000000000000000000000000000000000000F00D0000000000000000000000000000000000009B
:400E80000000000000000000000000000000000000000000000000000000000000000000000000000000000000000000A4000020000000000000000000000000000000006E
:400EC00000000000000000000000000000000000000000000000000000000000000000000000000000000000000000000000000000000000000000000000000000000000F2
:400F000000000000000000000000000000000000000000000000000000000000000000000000000000000000000000000000000000000000000000000000000000000000B1
:400F40000000000000000000000000000000000000000000000000000000000000000000000000000000000000000000000000000000000000000000000000000000000071
:400F80000000000000000000000000000000000000000000000000000000000000000000000000000000000000000000000000000000000000000000000000000000000031
:0200000490303A
:020000009A6103
:0200000490402A
:200000000000000000000000000000000000000000000000000000000000000000000000E0
:0200000490501A
:0C0000000002190111A900011905AC0A49
:0200000490600A
:0100000001FE
:00000001FF